:100000000C9463000C948B000C948B000C948B006C
:100010000C948B000C948B000C948B000C948B0034
:100020000C948B000C948B000C948B000C948B0024
:100030000C948B000C948B000C948B000C948B0014
:100040000C942D0F0C948B000C94770D0C94BA0D1E
:100050000C948B000C948B000C948B000C948B00F4
:100060000C948B000C948B00000000070002010030
:100070000003040600000000000000000102040864
:100080001020408001020408102001020408102002
:10009000040404040404040402020202020203032E
:1000A00003030303000000002300260029000000D2
:1000B0000000250028002B0000000000240027007D
:1000C0002A002B0B780E11241FBECFEFD8E0DEBF25
:1000D000CDBF12E0A0E0B1E0EAE2FBE202C0059091
:1000E0000D92A03BB107D9F726E0A0EBB2E001C02A
:1000F0001D92A636B207E1F710E0C3E6D0E004C0D7
:100100002197FE010E947515C136D107C9F70E94DB
:100110008F0C0C9493150C940000DC01FB011296DB
:100120008C911297808313968C91139781831496E8
:100130008C911497828315968C91159783831696CC
:100140008C911697848317968C91179785831896B0
:100150008C911897868319968C91878388E090E01C
:100160000895FC01DB014C9150E060E070E04283B7
:1001700053836483758311968C911197582B428316
:1001800053836483758312968C911297682B4283F4
:1001900053836483758313968C911397782B4283D2
:1001A00053836483758314964C91149750E060E0F8
:1001B00070E0468357836087718715968C911597F9
:1001C000582B468357836087718716968C911697B4
:1001D000682B468357836087718717968C91782B9D
:1001E000468357836087718788E090E008958DE0AB
:1001F00091E008958BE191E008958CE391E00895FA
:1002000085E591E0089586E791E0089589E891E019
:1002100008958DE392E008958AEA91E00895FB0144
:10022000DC0112964C91129713963C9113971496F9
:100230002C91149715968C9140833183228383836C
:1002400084E090E00895FB012181428150E060E06C
:1002500070E0BA0155274427522B2081422B23817D
:10026000722BFC01428353836483758384E090E0A6
:1002700008958BEC91E008958CED91E00895FC01D8
:10028000EA54FD4F80810895A5E0B0E0EAE4F1E092
:100290000C9432158C016B01643671053CF0FC0145
:1002A000EA54FD4F8081882309F478C0DA01ED918A
:1002B000FC910190F081E02DB801695C7E4FCA018C
:1002C00009957801B0EDEB1ABEEFFB0A2FEFF701AD
:1002D00020832EEF31962083319680833196908350
:1002E0003196292F280F209520833196C082D8017E
:1002F000AA5CBE4FDC9245E050E020E030E0BC015B
:100300006A5F7F4F6417750734F0A1912A0F311D82
:100310004F5F5F4FF7CF6C01F8E0CF0ED11C800F1D
:10032000911FFC01E95CFE4F2095208329E1C21654
:1003300021E0D206CCF45701C5018E199F098C1516
:100340009D0584F4D80112968D919C911397F50127
:1003500061915F01DC01ED91FC910190F081E02D54
:100360000995EACFC6011CC085E792E09A8389838C
:1003700083E08B838DEF91E09D838C83D801ED9199
:10038000FC910190F081E02DAE014F5F5F4F67E07F
:1003900070E0C80109958FEF9FEF02C080E090E008
:1003A0002596EAE00C944E150F931F93CF93DF939D
:1003B00004E011E060E0F80180810E946E10C0E06E
:1003C000D1E060E088810E946E1061E0F8018081D8
:1003D0000E94321061E088810E94321060E08091BA
:1003E00002010E943210DF91CF911F910F91089569
:1003F000EF92FF920F931F93CF93DF9360E0809172
:1004000004010E946E1060E0809100010E946E1055
:1004100061E0809104010E946E1061E070E080E074
:1004200090E00E94A80F00E010E0C5E1D0E0EE24CB
:10043000E394F12C219760E0CF3F8FEFD80741F193
:10044000809100010E946E1061E070E080E090E019
:100450000E94A80F61E0809100010E946E1061E08F
:1004600070E080E090E00E94A80FC930D10514F739
:10047000809102010E949E10892BE1F2C7010C2E8F
:1004800002C0880F991F0A94E2F7080F191FD2CFF4
:10049000809100010E946E1060E0809104010E9432
:1004A0006E10C801CDB7DEB7E6E00C9452159C0182
:1004B00086309105B9F10997029708F452C0277F59
:1004C0002330310509F06FC060347105F9F064F430
:1004D00068307105B9F060327105B1F061307105B5
:1004E00009F061C081E017C0611581E0780781F0F3
:1004F000611584E0780771F06038710509F053C028
:1005000085E009C082E007C083E005C084E003C045
:1005100086E001C087E09091B100987F892B80939D
:10052000B100089560347105E1F16CF4613071053A
:1005300031F491E085B5887F982B95BD089568309A
:10054000710559F10895611581E0780741F1611550
:100550007440B1F495E0255031092230310548F45A
:10056000E9CF60347105E9F084F46130710549F434
:1005700091E080918100887F982B9093810008956D
:1005800008956830710549F00895611581E0780794
:1005900031F061157440F1F2089592E0DCCF94E0FF
:1005A000DACF93E0D8CF089561E085E00E94321061
:1005B00061E070E089E090E00E9457020E94D4015F
:1005C00040E051EE60E070E08FEA95E00E94F50DAA
:1005D00061E085E00E946E104091D1025091D202FC
:1005E0006091D3027091D4028091CF029091D00299
:1005F0000E94F50D10927A051092790510927C05F3
:1006000010927B051092800510927F0510927E0556
:1006100010927D05E5E1F5E080E090E021913191D7
:10062000232BB1F4FC01EE0FFF1FEB5EFA4F20EB22
:1006300032E03183208383589F4F9093B50280939B
:10064000B4028DEC92E09093B7028093B6020895C5
:1006500001968931910511F70895CF92DF92EF92BB
:10066000FF9220E030E06A017B01022E04C0F69484
:10067000E794D794C7940A94D2F7FC01C192CF01B2
:10068000285F3F4F2032310571F7FF90EF90DF90E8
:10069000CF9008954F925F926F927F92AF92BF92E8
:1006A000CF92DF92EF92FF920F931F93CF93DF933E
:1006B000EC017B018A81FB0180838B8181838C81AA
:1006C00082838D818383DB01179640E050E0BA017D
:1006D000E4E0F0E04A805B806C807D808F010C5FFD
:1006E0001F4F4415550566057705C0F48A859B851F
:1006F000E80FF91F3497D080218192818381FD0119
:100700003397D08231962083319690838C93F80171
:100710004F5F5F4F6F4F7F4F1496DCCFEE0DFF1D85
:100720008C8580838D8581838E8582838F8583836D
:1007300080E090E040E050E0BA014C845D846E843B
:100740007F84F701E00FF11F0C5F1F4F4415550523
:1007500066057705B8F4AC89BD89A80FB91FCC90A0
:100760001196DC90119712963C91129713962C914A
:10077000C082D182328323834F5F5F4F6F4F7F4FA1
:100780000496DBCF8E8980838F898183888D8283D5
:10079000898D8383412C512C32018E899F89A88DAC
:1007A000B98D481659066A067B0680F55201AA0CD7
:1007B000BB1CEC8DFD8DEA0DFB1DA081B181FD01FF
:1007C00001900020E9F731976F01CA1ADB0AA601F0
:1007D00060E070E0C701800F911F0E942D030C5F45
:1007E0001F4F8C8D9D8DFC01EA0DFB1D6081718179
:1007F000A601C701800F911F0E948A150C0D1D1DB7
:10080000FFEF4F1A5F0A6F0A7F0AC7CFC801DF9157
:10081000CF911F910F91FF90EF90DF90CF90BF90FD
:10082000AF907F906F905F904F900895EF92FF92FE
:100830000F931F93CF93DF938C017B01EC018A818F
:10084000FB018193AB81BC81ED0109900020E9F7A8
:100850002197CA1BDB0BAE0160E070E0CF010E9464
:100860002D03F80163817481AE01C70105960E94D2
:100870008A15CE010596CDB7DEB7E6E00C94521589
:10088000A0E0B0E0E6E4F4E00C9434156C01EB0178
:10089000FC018281888383818983A481B581FD01E4
:1008A00001900020E9F731978F010A1B1B0BA8016B
:1008B00060E070E0CE0102960E942D03F601648193
:1008C0007581A801CE0106960E948A15C801069678
:1008D000F601A681B781FD0101900020E9F731976B
:1008E0007F01EA1AFB0AA70160E070E08C0F9D1FF0
:1008F0000E942D03065F1F4FF60166817781A701D5
:10090000CE01800F911F0E948A150E0D1F1DF6014A
:10091000A085B185FD0101900020E9F731977F01A5
:10092000EA1AFB0AA70160E070E0CE01800F911F78
:100930000E942D030C5F1F4FF60160857185A70192
:10094000CE01800F911F0E948A15C8018E0D9F1D38
:10095000F6016285438534852585C80FD91F6883D4
:1009600049833A832B830496CDB7DEB7E8E00C9435
:100970005015CF92DF92EF92FF92FC01108211820C
:1009800012821382DB0120E030E04D9150E0022E14
:1009900002C0440F551F0A94E2F7052E000C660BA7
:1009A000770BC080D180E280F3804C295D296E29CD
:1009B0007F294083518362837383285F3F4F2032B6
:1009C000310519F7FF90EF90DF90CF900895A4E0E4
:1009D000B0E0EDEEF4E00C9430157C018B01FB01EE
:1009E0008191BF01F7018283CE0101960E94B90473
:1009F00089819A81AB81BC814C015D01F5E08F0E4C
:100A0000911CA11CB11C680125E0C20ED11CA601DD
:100A1000401B510B60E070E0481559056A057B05E5
:100A200048F4F60141916F019F0122503109F9010B
:100A30004083EDCFF801E80FF91F14820C5F1F4FC0
:100A4000F7011483038305962496ECE00C944C156F
:100A5000ACE0B0E0EEE2F5E00C942C157C018B01EB
:100A6000DB018C9190E0F7019383828311962C91A6
:100A7000922B938382836E5F7F4FCE0109960E94F3
:100A8000B90489849A84AB84BC84B501A4014A5F0B
:100A90005F4F6F4F7F4FF8013696CF01801B910B50
:100AA000A0E0B0E084179507A607B70728F4819166
:100AB000DF0112978C93F1CFF801E80DF91D158233
:100AC000C8010596D70115969C938E931497B4018F
:100AD0006A5F7F4F600F711FCE0105960E94B904B7
:100AE000BAE08B0E911C4D815E816F817885240167
:100AF000092C000C66087708440E551E661E771EEA
:100B0000F801E80DF91DCF01801B910BA0E0B0E0CA
:100B100084159505A605B70528F48191DF01129784
:100B20008C93F1CF6401C40ED51EB8016C0D7D1DF0
:100B3000FB0131971082C4010197800F911FF701CB
:100B400097838683CE0101960E94B904A6014C5F6B
:100B50005F4F49805A806B807C804A01052E000CD3
:100B6000AA08BB08840C951CA61CB71CF801E40F4E
:100B7000F51F9F01201B310BC901A0E0B0E08815D3
:100B80009905AA05BB0528F48191DF0112978C9382
:100B9000F0CFCA01840D951DF801E80FF91FDF01A0
:100BA00011971C929A0121503109020F131FD7018E
:100BB00019961C930E9318972181428150E060E0B2
:100BC00070E0BA0155274427522B2081422B238104
:100BD000722BF701428753876487758704962C969A
:100BE000E0E10C944815A8E0B0E0E9EFF5E00C94E2
:100BF0002A158C015B01DB018C9111969C91119758
:100C00001296CC901297D12CE12CF12C7601DD2498
:100C1000CC24D92AC82A13968C91F82AF80182810B
:100C20009381A481B5818C159D05AE05BF0570F437
:100C3000B601660F771F660F771F828593850E9426
:100C4000C710D8011B969C938E931A97F801C28205
:100C5000D382E482F582D5011796C12CD12C76017E
:100C6000F4E08F2E912C98012A5F3F4FF8014281CA
:100C7000538164817581C4010496C416D506E606C5
:100C8000F70680F54C9150E060E070E0742F662725
:100C900055274427FD013397E0814E2BFD01329704
:100CA000E0815E2BFD013197E0816E2BF8014683D8
:100CB0005783608771874C01089742855385840F5D
:100CC000951FF9014081518162817381FC0140834C
:100CD000518362837383FFEFCF1ADF0AEF0AFF0AA3
:100CE0001496C4CFF401EA0DFB1D20813181C2802E
:100CF000D12CE12CF12C7601DD24CC24D32AC22A7C
:100D00002381F22A4C01F80184859585A685B78553
:100D10008C159D05AE05BF0570F4B601660F771FF3
:100D2000660F771F848995890E94C710D801559650
:100D30009C938E935497F801C486D586E686F786F1
:100D400020E030E0C12CD12C7601D8015096F8017A
:100D50004485558566857785F501E80DF91DC40143
:100D60000496C416D506E606F70648F5918042813A
:100D700050E060E070E0BA0155274427592990807F
:100D80004929E3817E2BF801408B518B628B738B59
:100D90004C0184899589FC01E20FF31F4D915D910F
:100DA0006D917C9113974083518362837383FFEF2E
:100DB000CF1ADF0AEF0AFF0A2C5F3F4FC8CF20810E
:100DC0003181C280D12CE12CF12C7601DD24CC24A0
:100DD000D32AC22A2381F22A4C01F80186899789F5
:100DE000A08DB18D8C159D05AE05BF0560F4B601D3
:100DF000660F771F848D958D0E94C710D8015D9670
:100E00009C938E935C97F801C68AD78AE08EF18E08
:100E1000412C512C32011801FAE12F0E311CF8013E
:100E200086899789A08DB18D481659066A067B067A
:100E300008F05AC0B501680D791DCE0101960E94D7
:100E4000B90494012C5F3F4FC980DA80EB80FC80AD
:100E5000C901032E000CAA0BBB0BAC01BD014C0D4C
:100E60005D1D6E1D7F1D4D835E836F837887F50149
:100E7000E20FF31FAF014A195B09CA01A0E0B0E01D
:100E80004D815E816F81788584179507A607B70726
:100E900028F44191DF0112974C93ECCFC9018C0DDE
:100EA0009D1DF501E80FF91F31971082215031097E
:100EB0002A0D3B1DD8015B963C932E935A974C010B
:100EC000C201880F991F5C96ED91FC915D97E80F28
:100ED000F91FD1018D919C9191838083BFEF4B1AB3
:100EE0005B0A6B0A7B0A9BCFC4012896E2E10C9453
:100EF0004615AAE0B0E0EFE7F7E00C9438158C0156
:100F00008DE592E09A8389831B821C821D821E825A
:100F10001F82188619861A86D801ED91FC910190DE
:100F2000F081E02DAE014F5F5F4F6AE070E0C801D5
:100F300009950E94770FF8016087718782879387F0
:100F40002A96E4E00C9454154F925F926F927F9230
:100F5000AF92BF92CF92DF92EF92FF920F931F93C7
:100F6000CF93DF93CDB7DEB72E970FB6F894DEBFE1
:100F70000FBECDBF8C0189E692E09A8389831C82E3
:100F80001B8285E392E09E838D8398878F839A8767
:100F900089871B861C861D861E86680188EBC81AF9
:100FA0008DEFD80A7801A6E8EA1AADEFFA0A98E1BF
:100FB000492E55245394612C712CD601ED91FC914E
:100FC0003097B9F1848195819C838B838081918155
:100FD0009E838D8382819381DC01ED91FC9104805D
:100FE000F581E02D099598878F83D601ED91FC91CD
:100FF00082819381DC01ED91FC910680F781E02DE7
:1010000009959A8789874B865C866D867E86F8016E
:1010100080819181F601A081B18118966D917C91BA
:101020001997DC01ED91FC91AE014F5F5F4FC80154
:101030000995B2E0CB0ED11CCE14DF0409F0BDCF70
:101040006801E4E5CE1AEDEFDE0A88E1482E55246A
:101050005394612C712CF701A081B1811097E1F1BB
:1010600012968D919C9113979C838B8314968D91EE
:101070009C9115979E838D83ED91FC91119704802F
:10108000F581E02DCD01099598878F83D7018D914A
:101090009C91DC01ED91FC910680F781E02D099592
:1010A0009A8789874B865C866D867E86D801ED910E
:1010B000FC91A080B180F70180819181DC01ED91EC
:1010C000FC910280F381E02D0995AE014F5F5F4FE7
:1010D000BC01C801F5010995F2E0EF0EF11CEC141A
:1010E000FD0409F0B8CFF801EA54FD4F81E0808398
:1010F0002E960FB6F894DEBF0FBECDBFDF91CF9115
:101100001F910F91FF90EF90DF90CF90BF90AF9025
:101110007F906F905F904F900895AAE0B0E0E3E970
:10112000F8E00C9430158C015B018DE592E09A8318
:1011300089831B821C821D821E821F82188619864B
:101140001A860E94770FF801C084D184E284F38468
:101150009B01AC012C193D094E095F0969017A0117
:10116000B501CE0101960E94B10088EE882E83E081
:10117000982EA12CB12CC701B601A50194010E94A3
:10118000DE14CB80DC80ED80FE80C20ED31EE41E18
:10119000F51ECB82DC82ED82FE829B01AC0160E415
:1011A00072E48FE090E00E94BA14CF80D884E98482
:1011B000FA84DC01CB018C0D9D1DAE1DBF1D8F83FC
:1011C0009887A987BA870E94770FCB80DC80ED8053
:1011D000FE8031E0C31AD108E108F108A5019401AD
:1011E0000E94DE14C21AD30AE40AF50AF801C48682
:1011F000D586E686F786CF80D884E984FA84F6E33C
:10120000DF1AF5E6EF0AF4ECFF0A9B01AC0160E49B
:1012100072E48FE090E00E94BA14C61AD70AE80A76
:10122000F90AF801C08AD18AE28AF38AB801605FBC
:101230007F4FC8010C960E94670C0E94770FF8013F
:10124000E554FD4F60837183828393832A96ECE09B
:101250000C944C15A0E1B0E0E0E3F9E00C942A1501
:10126000988B8F870E94770F4B015C012F853889FF
:1012700025543D4F3E832D83F90180819181A281C8
:10128000B381A5019401281B390B4A0B5B0BDA01D2
:10129000C901893F9A42A105B10528F0EF85F88977
:1012A000EA54FD4F10820F85188904551D4FD8014F
:1012B0008D919C91892B81F0EF85F889E154FD4F48
:1012C00080819181A281B38188159905AA05BB050A
:1012D00018F4F801118210826F847888FCE46F1A88
:1012E000FDEF7F0A2F85388920553D4F3A832983AA
:1012F000CF84D88838E1C30ED11C4F8558894A5411
:101300005D4F58874F832F8538892C533D4F3A873F
:1013100029874F8558894D535D4F5C874B87EF84F4
:10132000F88852E5E51A5DEFF50A2F8538892E54C5
:101330003D4F3C832B834F85588941545D4F5E87D9
:101340004D871401250154E1250E311C411C511C0F
:10135000EF85F88984899589A689B789892B8A2B95
:101360008B2B89F4AF85B88912968D919C91139738
:10137000DC01ED91FC910680F781E02D09959C013F
:1013800097FF15C037C10E94770FDC01CB01881988
:101390009909AA09BB09EF85F88924893589468905
:1013A0005789281739074A075B07E0F64BC1D30175
:1013B0008D919C911197820F931F8D939C93F801AF
:1013C0004081518147305105D9F4AB81BC818D9169
:1013D0009C911197AC014F5F5F4F4D935C93EF85EC
:1013E000F889E80FF91F208FF7018081918101971B
:1013F00091838083892B09F0ABCF88E090E02FC0E8
:101400004115510521F52F3F310569F481E090E048
:10141000F80191838083AD85BE852D923D924D92DA
:101420005C92139795CF0E94770FDC01CB0188194E
:101430009909AA09BB0989389341A105B10508F4A6
:1014400087CFEF85F889EA54FD4F1082FBC0413009
:101450005105B1F42E3F310531F482E090E0D8011E
:101460008D939C9375CFF80111821082AF81B8855E
:101470008C9181116DCF8F8598890E94790768CFF3
:101480004230510569F4F70131832083AB81BC817F
:101490001D921C9283E090E0F801918380832EC01E
:1014A0004330510561F4322F2227F7018081918169
:1014B000280F391F3183208384E090E0D0CF44305F
:1014C000510581F460E071E00E94CA148F3F9105DC
:1014D00031F485E090E0F8019183808339CF118267
:1014E000108236CF4530510569F4E981FA813183A4
:1014F0002083E6E0F0E0D801ED93FC93D3012D9337
:101500003C9326CF4630510599F4322F2227E981AA
:10151000FA8180819181280F391F31832083E7E090
:10152000F0E0D801ED93FC93D7018D919C9162CFAF
:101530004830510509F00CCFF8011182108260E0AB
:1015400071E00E94CA148F3F910509F001CFA98173
:10155000BA818D919C910097C9F48F8598890E94DA
:1015600079078F8598890E94A407EF85F889E95447
:10157000FD4F80829182A282B382ED81FE818082C2
:101580009182A282B3828FEF9FEF61C08A30910572
:1015900031F4B6018F8598890E948D08D9CE8630A6
:1015A000910551F4B60189859A850E94F30581E081
:1015B000AB85BC858C93CCCE8B30910521F4EF812B
:1015C000F8851082C5CEFC01E752FF4FEE0FFF1FDA
:1015D0002F853889E20FF31F80819181009709F4EC
:1015E000B7CEDC01ED91FC910190F081E02DB601C8
:1015F0000995AECEEF85F889EA54FD4F80818823A6
:1016000021F10F85188909541D4FF80180819181BE
:10161000A281B381A5019401281B390B4A0B5B0BF6
:10162000DA01C901853C9940A105B10570F08F85AB
:1016300098890E947907D8018D929D92AD92BC92B3
:10164000139703C08EEF9FEF02C080E090E060969A
:10165000E2E10C94461589E992E09093CE028093E2
:10166000CD028FEA95E09093D0028093CF0280E084
:1016700091EEA0E0B0E08093D1029093D202A093CB
:10168000D302B093D4021092830581E892E0909344
:1016900092058093910510929305109294051092F3
:1016A00095051092960510929C0510929B0510923C
:1016B0009D0510929E0510929F051092A005109214
:1016C000A6051092A5051092A7051092A8051092E4
:1016D000A9051092AA051092AE051092AD05E5E19C
:1016E000F5E01192119285E0E734F807D1F7E7E4CD
:1016F000F5E01192119285E0E937F807D1F7E5EEB0
:10170000F2E0119283E0ED3FF807D9F7EDEFF3E057
:10171000119285E0E531F807D9F71092E1021092B5
:10172000E2021092E3021092E4028DE892E09093BC
:10173000BB028093BA021092BC021092BD021092BA
:10174000BE021092BF0286E392E09093B1028093B2
:10175000B0028AEB92E09093B3028093B2021092AF
:10176000B9021092B8020895A0E0B0E0EAEBFBE005
:101770000C9432150E94F801EC019093C5028093FD
:10178000C402BC01990F880B990B0E94C1136B0115
:101790007C018091C6029091C702BC01990F880B11
:1017A000990B0E94C1139B01AC01C701B6010E94B5
:1017B000E01220E030E044EB53E40E944D132AE0B5
:1017C00037ED43E25DE30E944D142091C002309159
:1017D000C1024091C2025091C3020E94E112609383
:1017E000C0027093C1028093C2029093C302D0934F
:1017F000C702C093C6026093BC027093BD0280937F
:10180000BE029093BF028091B6029091B702DC01B4
:10181000ED91FC916091B4027091B5020190F0815C
:10182000E02D4AEB52E009958DEC92E00E942A09E6
:1018300061E070E080E090E00E94A80F8EE00E94DE
:10184000B30E9093CB028093CA02BC01990F880B10
:10185000990B1F921F921F922FEF2F93A12CB12C47
:101860006501EE24EA9413E0F12E00E010E020E0A0
:1018700030E0A9010E949C0C7093C9026093C802D9
:1018800089E00E94D00E8FEA95E00E94DD0C0F9057
:101890000F900F900F9018161906A4F48FEA95E098
:1018A0000E94090D8093CC02813621F461E085E02D
:1018B0000E946E108091CC02823621F460E085E0B7
:1018C0000E946E10CDB7DEB7EAE00C944E15A0E092
:1018D000B0E0EDE6FCE00C9434158C01EB0168817E
:1018E00079818A819B8120E03AEC4AE95BE30E949E
:1018F000DE14F801C080D180E280F380C20ED31ED6
:10190000E41EF51EC082D182E282F382688379836D
:101910008A839B83CDB7DEB7E8E00C9450150E9414
:10192000CE0F0E94D402C1EBDDE00E94B40B2097E1
:10193000E1F30E94B10DF9CF4F925F926F927F92C7
:10194000AF92BF92CF92DF92EF92FF920F931F93CD
:10195000CF93DF93CDB7DEB729013A019B01AC01EC
:10196000241935094609570989899A89AB89BC899F
:10197000BC01CD016A197B098C099D090E94BA142A
:10198000A801970124193509460957090E94001535
:10199000CA01B9016A0D7B1D8C1D9D1DDF91CF9180
:1019A0001F910F91FF90EF90DF90CF90BF90AF907D
:1019B0007F906F905F904F900895FC01248535854E
:1019C000F901E05CFF4F8081918132962081318165
:1019D000821B930B8F7399270895DC011C96ED9160
:1019E000FC911D97DF01A05CBF4F2D913C91119799
:1019F00012968D919C9111972817390739F08D9186
:101A00009C91E80FF91F808190E008958FEF9FEF80
:101A10000895FC01A485B585FD01E05CFF4F2081A0
:101A200031813296808191812817390779F0808140
:101A30009181A80FB91F8C91208131812F5F3F4F79
:101A40002F7333273183208390E008958FEF9FEF2A
:101A50000895FC0181A1882329F0A489B5898C917E
:101A600086FFFBCF11A208950F931F93CF93DF93AF
:101A7000FC01A685B7858D01005C1F4FE8018881B8
:101A8000998101968F739927AD014E5B5F4FEA01F3
:101A90002881398182179307D1F3E80128813981A0
:101AA000A20FB31F6C93A685B785A05CBF4F11969C
:101AB0009C938E93A689B7892C9181E090E0078C46
:101AC00002C0880F991F0A94E2F7822B8C9381E061
:101AD00081A30488F589E02D80818064808381E082
:101AE00090E0DF91CF911F910F91089508951F927B
:101AF0000F920FB60F9211242F934F935F938F93F2
:101B00009F93EF93FF938091C00082FD1CC02091B2
:101B1000C600809155069091560601968F739927BD
:101B200040915706509158068417950771F0E0913F
:101B30005506F0915606EB5EF94F208390935606BA
:101B40008093550602C08091C600FF91EF919F914E
:101B50008F915F914F912F910F900FBE0F901F901B
:101B600018958FEA95E00E94DD0C892B11F00E94F8
:101B7000760D08951F920F920FB60F9211242F9396
:101B80003F938F939F93EF93FF9320911106309192
:101B9000120680911306909114062817390731F424
:101BA0008091C1008F7D8093C10014C0E091130625
:101BB000F0911406EF52FA4F208180911306909114
:101BC000140601968F739927909314068093130639
:101BD0002093C600FF91EF919F918F913F912F919C
:101BE0000F900FBE0F901F901895A0E0B0E0EBEFA4
:101BF000FDE00C943415EC016A017B014115514E56
:101C00006105710511F1EC89FD8981E090E008A082
:101C100002C0880F991F0A94E2F7808360E079E0A0
:101C20008DE390E0A70196010E94DE1489019A01DC
:101C30000150110921093109369527951795079506
:101C40009801011580E11807A8F0EC89FD89108240
:101C500060E874E88EE190E0A70196010E94DE142E
:101C6000DA01C9010197A109B109B695A795979520
:101C700087959C01E889F9893083EA89FB8920836B
:101C800019A2EE89FF89408181E090E09C010C8CD3
:101C900002C0220F331F0A94E2F7242B2083EE891F
:101CA000FF8940819C010D8C02C0220F331F0A94D2
:101CB000E2F7242B2083EE89FF8940819C010E8C62
:101CC00002C0220F331F0A94E2F7242B2083EE89EF
:101CD000FF8920810F8C02C0880F991F0A94E2F7B8
:101CE000809582238083CDB7DEB7E8E00C94501551
:101CF000EFEAF5E01382128288EE93E0A0E0B0E014
:101D000084839583A683B78383EA92E0918380835B
:101D100085E196E09587848781ED95E097878687B2
:101D200085EC90E0918B808B84EC90E0938B828BA0
:101D300080EC90E0958B848B81EC90E0978B868B88
:101D400082EC90E0918F808F86EC90E0938F828F71
:101D500084E0848F83E0858F87E0868F85E0878F9E
:101D600081E080A308958E3008F08E508770209116
:101D7000060190E4299F90011124822B80937C001E
:101D800080917A00806480937A0080917A0086FD49
:101D9000FCCF809178002091790090E0922B0895FB
:101DA0001F93CF93DF93182FEB0161E00E94321055
:101DB000209711F460E004C0CF3FD10529F461E021
:101DC000812F0E946E1045C0E12FF0E0E859FF4FCF
:101DD000E491E330F9F048F4E130B9F0E230A1F5F4
:101DE00084B5806284BDC8BD34C0E630E9F0E73018
:101DF00019F1E43049F58091800080628093800081
:101E0000D0938B00C0938A0024C084B5806884BDC1
:101E1000C7BD1FC080918000806880938000D093F0
:101E20008900C093880015C08091B00080688093BD
:101E3000B000C093B3000DC08091B0008062809369
:101E4000B000C093B40005C0C038D1050CF0B7CFC6
:101E5000B1CFDF91CF911F9108951F920F920FB6CE
:101E60000F9211242F933F938F939F93AF93BF9320
:101E700080915A0690915B06A0915C06B0915D0638
:101E80003091590623E0230F2D3720F40196A11D30
:101E9000B11D05C026E8230F0296A11DB11D209398
:101EA000590680935A0690935B06A0935C06B09304
:101EB0005D0680915E0690915F06A0916006B091EC
:101EC00061060196A11DB11D80935E0690935F0689
:101ED000A0936006B0936106BF91AF919F918F91DF
:101EE0003F912F910F900FBE0F901F9018952FB715
:101EF000F89460915A0670915B0680915C0690910F
:101F00005D062FBF08953FB7F89480915E069091CB
:101F10005F06A0916006B091610626B5A89B05C03A
:101F20002F3F19F00196A11DB11D3FBFBA2FA92F58
:101F3000982F8827820F911DA11DB11DBC01CD01D5
:101F400042E0660F771F881F991F4A95D1F70895C1
:101F5000CF92DF92EF92FF92CF93DF936B017C01E0
:101F60000E94830FEB01C114D104E104F10479F064
:101F70000E94830F6C1B7D0B683E7340A0F381E0D1
:101F8000C81AD108E108F108C851DC4FECCFDF9145
:101F9000CF91FF90EF90DF90CF900895789484B523
:101FA000826084BD84B5816084BD85B5826085BD55
:101FB00085B5816085BDEEE6F0E08081816080833B
:101FC000E1E8F0E01082808182608083808181601E
:101FD0008083E0E8F0E0808181608083E1EBF0E0E5
:101FE000808184608083E0EBF0E080818160808389
:101FF000EAE7F0E080818460808380818260808372
:102000008081816080838081806880831092C1009C
:102010000895833081F028F4813099F08230A1F066
:1020200008958630A9F08730B9F08430D1F48091DA
:1020300080008F7D03C0809180008F778093800027
:10204000089584B58F7702C084B58F7D84BD0895CF
:102050008091B0008F7703C08091B0008F7D809316
:10206000B0000895CF93DF9390E0FC01E458FF4F58
:102070002491FC01E057FF4F8491882361F190E0A7
:10208000880F991FFC01E854FF4FC591D491FC01C2
:10209000E255FF4FA591B491611109C09FB7F89423
:1020A0008881209582238883EC912E230BC0623097
:1020B00061F49FB7F8943881822F809583238883B9
:1020C000EC912E2B2C939FBF06C08FB7F894E8811C
:1020D0002E2B28838FBFDF91CF9108951F93CF932D
:1020E000DF93282F30E0F901E859FF4F8491F9017F
:1020F000E458FF4FD491F901E057FF4FC491CC232E
:10210000C9F0162F81110E940910EC2FF0E0EE0F9C
:10211000FF1FE255FF4FA591B4918FB7F8941111AD
:1021200005C09C91ED2FE095E92302C0EC91ED2BC9
:10213000EC938FBFDF91CF911F910895CF93DF93E1
:10214000282F30E0F901E859FF4F8491F901E45854
:10215000FF4FD491F901E057FF4FC491CC2391F088
:1021600081110E940910EC2FF0E0EE0FFF1FEC55DB
:10217000FF4FA591B491EC91ED2381E090E021F423
:1021800080E002C080E090E0DF91CF910895A0E070
:10219000B0E0EDECF0E10C942E15EC01009721F489
:1021A000CB010E94B311B8C0FC01E60FF71F9C01E0
:1021B00022503109E217F30708F4ACC0D9010D91A0
:1021C0001C91119706171707B0F00530110508F498
:1021D0009FC0C80104978617970708F499C002505A
:1021E0001109061B170B019311936D937C93CF017B
:1021F0000E9448128DC05B01A01AB10A4C01800EEA
:10220000911EA0916406B091650640E050E0E12C7B
:10221000F12C109709F44AC0A815B905D1F56D90B5
:102220007C901197630182E0C80ED11CCA14DB04B4
:1022300080F1A3014A195B096A0182E0C80ED11C32
:102240001296BC9012971396AC91B5E0CB16D104C0
:1022500040F0B282A38351834083D9016D937C9374
:102260000AC00E5F1F4FC301800F911FF9019183B8
:102270008083EB2DFA2FE114F10431F0D70113968E
:10228000FC93EE93129744C0F0936506E0936406C6
:102290003FC08D919C9111974817590708F4AC01E4
:1022A0007D0112960D90BC91A02DB3CF8091620656
:1022B0009091630688159905E1F446175707C8F40D
:1022C0008091070190910801009741F48DB79EB766
:1022D00040910B0150910C01841B950BE817F907F5
:1022E000C8F4F0936306E0936206F901718360839A
:1022F0000FC0CB010E94B3117C01009759F0A801D7
:10230000BE010E948A15CE010E944812C70104C076
:10231000CE0102C080E090E0CDB7DEB7EEE00C94D5
:102320004A15A0E0B0E0E7E9F1E10C9434156C0146
:10233000EB017B01E40EF51E00E010E0CE15DF0599
:1023400061F06991D601ED91FC910190F081E02D51
:10235000C6010995080F191FF1CFC801CDB7DEB727
:10236000E8E00C945015CF93DF938230910510F480
:1023700082E090E0E0916406F091650620E030E0B4
:10238000C0E0D0E0309711F14081518148175907E2
:10239000C0F04817590761F482819381209719F0A2
:1023A0009B838A832BC0909365068093640626C026
:1023B0002115310519F04217530718F49A01BE018F
:1023C000DF01EF010280F381E02DDCCF2115310523
:1023D00009F1281B390B2430310590F412968D91A8
:1023E0009C9113976115710521F0FB019383828302
:1023F00004C09093650680936406FD01329644C044
:10240000FD01E20FF31F81939193225031092D9327
:102410003C933AC02091620630916306232B41F42D
:102420002091090130910A013093630620936206DE
:1024300020910701309108012115310541F42DB794
:102440003EB740910B0150910C01241B350BE091DC
:102450006206F0916306E217F307A0F42E1B3F0B10
:102460002817390778F0AC014E5F5F4F2417350706
:1024700048F04E0F5F1F50936306409362068193AE
:10248000919302C0E0E0F0E0CF01DF91CF91089599
:102490000F931F93CF93DF93009709F48CC0FC0137
:1024A000329713821282009164061091650601151D
:1024B000110581F420813181820F931F20916206E2
:1024C000309163062817390779F5F0936306E09396
:1024D000620671C0D80140E050E0AE17BF0750F46B
:1024E00012962D913C911397AD012115310509F1FB
:1024F000D901F3CF9D01DA01338322836081718199
:10250000860F971F8217930769F4EC0128813981A0
:10251000260F371F2E5F3F4F318320838A819B8197
:1025200093838283452B29F4F0936506E093640638
:1025300042C01396FC93EE931297ED014991599185
:102540009E01240F351FE217F30771F480819181FA
:10255000840F951F029611969C938E93828193818E
:1025600013969C938E931297E0E0F0E0D8011296B8
:102570008D919C911397009719F0F8018C01F6CF7B
:102580008D919C9198012E5F3F4F820F931F209158
:102590006206309163062817390769F4309729F4E9
:1025A000109265061092640602C013821282109384
:1025B000630600936206DF91CF911F910F910895FA
:1025C0005058BB27AA270E94F8120C9413140E949B
:1025D000051438F00E940C1420F039F49F3F19F4D0
:1025E00026F40C9402140EF4E095E7FB0C94FC1313
:1025F000E92F0E94241458F3BA176207730784075F
:10260000950720F079F4A6F50C9446140EF4E095A5
:102610000B2EBA2FA02D0B01B90190010C01CA019C
:10262000A0011124FF27591B99F0593F50F4503E47
:1026300068F11A16F040A22F232F342F4427585F39
:10264000F3CF469537952795A795F0405395C9F751
:102650007EF41F16BA0B620B730B840BBAF0915009
:10266000A1F0FF0FBB1F661F771F881FC2F70EC0A8
:10267000BA0F621F731F841F48F48795779567957B
:10268000B795F7959E3F08F0B0CF9395880F08F067
:102690009927EE0F9795879508950E9461130C94E2
:1026A00013140E940C1458F00E94051440F029F4F1
:1026B0005F3F29F00C94FC1351110C9447140C94B7
:1026C00002140E94241468F39923B1F3552391F363
:1026D000951B550BBB27AA2762177307840738F091
:1026E0009F5F5F4F220F331F441FAA1FA9F335D0EE
:1026F0000E2E3AF0E0E832D091505040E695001CA2
:10270000CAF72BD0FE2F29D0660F771F881FBB1F5B
:10271000261737074807AB07B0E809F0BB0B802D39
:10272000BF01FF2793585F4F3AF09E3F510578F065
:102730000C94FC130C9447145F3FE4F3983ED4F3DD
:10274000869577956795B795F7959F5FC9F7880F39
:10275000911D9695879597F90895E1E0660F771F8B
:10276000881FBB1F621773078407BA0720F0621B1C
:10277000730B840BBA0BEE1F88F7E0950895E8946D
:1027800009C097FB3EF490958095709561957F4FB9
:102790008F4F9F4F9923A9F0F92F96E9BB27939567
:1027A000F695879577956795B795F111F8CFFAF477
:1027B000BB0F11F460FF1BC06F5F7F4F8F4F9F4FA8
:1027C00016C0882311F096E911C0772321F09EE806
:1027D000872F762F05C0662371F096E8862F70E06C
:1027E00060E02AF09A95660F771F881FDAF7880F46
:1027F0009695879597F9089597F99F6780E870E017
:1028000060E008959FEF80EC089500240A94161666
:10281000170618060906089500240A9412161306CE
:10282000140605060895092E0394000C11F488235C
:1028300052F0BB0F40F4BF2B11F460FF04C06F5F78
:102840007F4F8F4F9F4F089557FD9058440F551F4E
:1028500059F05F3F71F04795880F97FB991F61F022
:102860009F3F79F087950895121613061406551F99
:10287000F2CF4695F1DF08C0161617061806991F05
:10288000F1CF86957105610508940895E894BB27FA
:1028900066277727CB0197F908950E9460140C945E
:1028A00013140E94051438F00E940C1420F0952394
:1028B00011F00C94FC130C94021411240C94471482
:1028C0000E94241470F3959FC1F3950F50E0551F9B
:1028D000629FF001729FBB27F00DB11D639FAA2775
:1028E000F00DB11DAA1F649F6627B00DA11D661FC4
:1028F000829F2227B00DA11D621F739FB00DA11DE5
:10290000621F839FA00D611D221F749F3327A00D9E
:10291000611D231F849F600D211D822F762F6A2F3A
:1029200011249F5750409AF0F1F088234AF0EE0F9F
:10293000FF1FBB1F661F771F881F91505040A9F7CC
:102940009E3F510580F00C94FC130C9447145F3F9C
:10295000E4F3983ED4F3869577956795B795F79508
:10296000E7959F5FC1F7FE2B880F911D9695879580
:1029700097F90895DB018F939F930E941F15BF91D4
:10298000AF91A29F800D911DA39F900DB29F900DBE
:102990001124089597FB072E16F4009407D077FDB5
:1029A00009D00E94611507FC05D03EF490958195F1
:1029B0009F4F0895709561957F4F0895A1E21A2E5B
:1029C000AA1BBB1BFD010DC0AA1FBB1FEE1FFF1FD3
:1029D000A217B307E407F50720F0A21BB30BE40B23
:1029E000F50B661F771F881F991F1A9469F760956A
:1029F0007095809590959B01AC01BD01CF01089524
:102A0000052E97FB1EF400940E94171557FD07D062
:102A10000E94DE1407FC03D04EF40C941715509559
:102A20004095309521953F4F4F4F5F4F08959095BA
:102A30008095709561957F4F8F4F9F4F08950E94AD
:102A40007B15A59F900DB49F900DA49F800D911DA7
:102A5000112408952F923F924F925F926F927F922E
:102A60008F929F92AF92BF92CF92DF92EF92FF929E
:102A70000F931F93CF93DF93CDB7DEB7CA1BDB0B4A
:102A80000FB6F894DEBF0FBECDBF09942A883988EF
:102A900048885F846E847D848C849B84AA84B984F6
:102AA000C884DF80EE80FD800C811B81AA81B98102
:102AB000CE0FD11D0FB6F894DEBF0FBECDBFED0116
:102AC0000895AA1BBB1B51E107C0AA1FBB1FA61775
:102AD000B70710F0A61BB70B881F991F5A95A9F7C7
:102AE00080959095BC01CD010895EE0FFF1F0590D4
:102AF000F491E02D0994A29FB001B39FC001A39F60
:102B0000700D811D1124911DB29F700D811D112426
:102B1000911D0895FB01DC0102C001900D9241500E
:0A2B20005040D8F70895F894FFCF55
:102B2A00120013001100010000660680007374642D
:102B3A005F6D7367732F54696D650063643731364F
:102B4A0036633734633535326333313166626363F2
:102B5A00326665356137626332383900726F737372
:102B6A00657269616C5F6D7367732F546F70696307
:102B7A00496E666F00306164353166383866633491
:102B8A00343839326638633130363834303737368C
:102B9A00343630303500726F7373657269616C5FF9
:102BAA006D7367732F4C6F6700313161626437331D
:102BBA00316332353933333236316364363138333F
:102BCA0062643132643632393500396630653938F3
:102BDA00626461363539383139383664646635337A
:102BEA0061666137613430653439007374645F6DCE
:102BFA007367732F466C6F617433320037336663C1
:102C0A0062663436623439313931653637323930B1
:102C1A00386535303834326138336434004D657381
:102C2A00736167652066726F6D2064657669636596
:102C3A002064726F707065643A206D6573736167A2
:102C4A0065206C6172676572207468616E206275B6
:102C5A00666665722E00785F706F736500726F73B7
:102C6A0073657269616C5F6D7367732F52657175F5
:102C7A00657374506172616D00000000008D00B1CF
:102C8A0000F700FA000000000040042805FD0000DB
:102C9A0001000000001604E7040301060100000019
:102CAA00004A03F30509010C01000000000F01238B
:102CBA000139013C010000000044012A093F0100DA
:102CCA00000000340D9111DD0C090DED0C290D00E9
:00000001FF
